:020000040800F2
:10000000A004002001010008E90600088D04000892
:10001000E506000849010008DD0F000800000000A7
:100020000000000000000000000000001D0B0008A0
:100030004D01000800000000D90A0008C10C0008AA
:100040001B0100081B0100081B0100081B01000820
:100050001B0100081B0100081B0100081B01000810
:100060001B0100081B0100081B0100081B01000800
:100070001B0100081B0100081B0100081B010008F0
:100080001B0100081B0100081B0100081B010008E0
:100090001B0100081B0100081B0100085D0100088E
:1000A0001B0100081B0100081B0100081B010008C0
:1000B0001B0100081B010008250D00081B0100089A
:1000C0001B0100081B0100081B0100081B010008A0
:1000D0001B0100081B0100081B0100081B01000890
:1000E0001B0100081B0100081B010008DFF80CD0F1
:1000F00000F018F800480047E1150008A0040020AF
:100100000648804706480047FEE7FEE7FEE7FEE7B1
:10011000FEE7FEE7FEE7FEE7FEE7FEE7C50C0008A8
:10012000ED000008064C074D06E0E06840F00103D2
:1001300094E8070098471034AC42F6D3FFF7DAFF93
:10014000002500082025000800BFFEE7704710B515
:1001500000F030FB00F00EFB10BD000010B54FF4B6
:10016000807000F037F8012810D100F099FF4FF4AB
:100170008071124800F07DF920B911480068401CD8
:100180000F4908604FF4807000F01EF84FF40070C3
:1001900000F020F8012810D100F082FF4FF4007128
:1001A000064800F066F920B906480068401C054979
:1001B00008604FF4007000F007F810BD000801401F
:1001C000580000205C0000200149086070470000D2
:1001D00014040140014600200022074B1B6803EA7B
:1001E0000102054B14331B680B4202D00AB10120F7
:1001F00000E0002070470000000401400021234976
:100200008279002A3AD00A46126803689A430B465C
:100210001A600A1D126803689A430B1D1A6002795E
:1002200011440A6803681A430A60184A08321268BF
:1002300003689A43154B08331A601A1D1268036845
:100240009A43124B0C331A604279102A0ED11A1FAE
:10025000126803681A430D4B08331A601A1D12689E
:1002600003681A43094B0C331A600DE007494279C1
:1002700011440A6803681A430A6005E002791144D0
:100280000A6803689A430A6070470000000401404E
:100290000EB54FF44070019001208DF80A00002047
:1002A0008DF808000C208DF8090001A8FFF7A6FFC3
:1002B0000921002000F034F817208DF800000120FB
:1002C0008DF8030002208DF8010000208DF8020057
:1002D000684600F00BFA0EBD10B500F01BF800F0F8
:1002E00009F8FFF7D5FF4FF4C06000F039FA00F0CD
:1002F000B5FE10BD08B504208DF803004FF4407022
:10030000ADF800006946024800F02AF808BD000078
:100310000008014010B50121042000F0EFFB10BDE2
:1003200030B500228B071C0F0F2303FA04F20B4B8E
:100330008C1053F824309343084C8D1044F825302A
:1003400023468C1053F824308C07240F00FA04F451
:100350002343024C8D1044F8253030BD0800014085
:100360002DE9F0410246002500260020002300244C
:10037000002791F803C00CF00F0591F803C01CF0A2
:10038000100F03D091F802C04CEA050591F800C0A7
:10039000BCF1000F31D0146800202BE04FF0010CAD
:1003A0000CFA00F3B1F800C00CEA03069E4220D11B
:1003B00083004FF00F0C0CFA03F7BC4305FA03FC63
:1003C0004CEA040491F803C0BCF1280F06D14FF0A9
:1003D000010C0CFA00FCC2F814C00AE091F803C04A
:1003E000BCF1480F05D14FF0010C0CFA00FCC2F82B
:1003F00010C0401C0828D1D31460B1F800C0BCF173
:10040000FF0F34DD546800202EE000F1080C4FF09F
:10041000010808FA0CF3B1F800C00CEA03069E428A
:1004200021D183004FF00F0C0CFA03F7BC4305FAFF
:1004300003FC4CEA040491F803C0BCF1280F05D179
:1004400000F1080C08FA0CF8C2F8148091F803C007
:10045000BCF1480F07D100F1080C4FF0010808FA71
:100460000CF8C2F81080401C0828CED35460BDE8B8
:10047000F0810246002093680B4201D0012000E089
:1004800000207047416170470161704700BFFEE77F
:100490000848806940F001000649886106484068C4
:1004A00020F0E060044948600846406840F0007071
:1004B00048607047001002400000014008B52FE07E
:1004C00030A20021084600F0AFFA10200623009069
:1004D0002F4802880021282000F064FA01F096F9E4
:1004E000012809D12A480088401C29490880294848
:1004F0000088401C2749088001F0A4F9012809D18F
:1005000023480088401E2249088022480088401E57
:100510002049088001F0B2F9012801D11E49087074
:100520001D4800780028CBD000F024F925E01BA25C
:100530000021084600F078FA1020062300901948A0
:1005400000210268282000F02DFA01F05FF901284F
:1005500004D114480068401C1249086001F072F987
:10056000012804D10F480068401E0E49086001F0C0
:1005700085F9012801D10C4908700B480078002842
:10058000D5D008BD73706565643A20200000000076
:100590002C0000202E0000209C0000206469733A8B
:1005A00020200000280000209D00002008B5012127
:1005B000082000F0A3FA10208DF8030040F21C4040
:1005C000ADF8000003208DF8020069460548FFF7EA
:1005D000C7FE00F0C1FF00F0CFFF00F0DDFF00F02C
:1005E000EBFF08BD000C01402DE9F041DDE906C438
:1005F00008ADE0CD012806D0022815D0042827D068
:1006000008284BD139E04FF47A78A4F800804FF0F5
:100610000008A5F800804FF4AA78A6F800804FF0F3
:100620000008A7F8008052E01E236FF01D0C01EBBC
:100630000308A4F800804FF00008A5F8008002EB42
:100640000C08A6F800804FF00008A7F800803EE0F4
:100650006FF01D034FF01E0C01EB0308A4F800809F
:100660004FF00008A5F8008002EB0C08A6F8008007
:100670004FF00008A7F8008029E04FF4AA78A4F80A
:1006800000804FF00008A5F800804FF47A78A6F8B3
:1006900000804FF00008A7F8008018E0DFF83480F1
:1006A000B8F80080A4F80080DFF82C80B8F800804B
:1006B000A5F80080DFF82480B8F80080A6F8008054
:1006C000DFF81C80B8F80080A7F8008000BF00BFEA
:1006D000BDE8F081480000204A0000204C000020C6
:1006E0004E00002000BFFEE77047000070B50021FB
:1006F00000230F22C4780CB3164C246804F4E06481
:10070000C4F5E064210AC1F10403CA40447804FA44
:1007100003F184781440214309010F4C0678A15558
:10072000047804F01F050124AC4005786D114FF0EA
:10073000E02606EB8505C5F8004109E0047804F0E1
:100740001F050124AC40054D0678761145F826407A
:1007500070BD00000CED00E000E400E080E100E08E
:1007600002490143024A1160704700000000FA0587
:100770000CED00E070B5002419E004F1B001C8B23E
:10078000002100F06DF90021084600F069F9002110
:10079000102000F065F9002505E00121002000F09F
:1007A0005FF9681CC5B2802DF7DB601CC4B2082C51
:1007B000E3DB70BD08B50121082000F09FF94FF47C
:1007C0007870ADF8000010208DF8030003208DF83C
:1007D000020069464A48FFF7C3FD4FF47871484864
:1007E000FFF752FE80214648FFF74EFE642000F0DE
:1007F00057FC80214248FFF745FEC82000F050FC1E
:1008000080213F48FFF740FE0021AE2000F028F98C
:100810000021084600F024F90021102000F020F902
:100820000021402000F01CF90021812000F018F97F
:100830000021CF2000F014F90021A12000F010F9D0
:100840000021C82000F00CF90021A62000F008F9D2
:100850000021A82000F004F900213F2000F000F959
:100860000021D32000F0FCF80021084600F0F8F841
:100870000021D52000F0F4F80021802000F0F0F8ED
:100880000021D92000F0ECF80021F12000F0E8F878
:100890000021DA2000F0E4F80021122000F0E0F856
:1008A0000021DB2000F0DCF80021402000F0D8F827
:1008B0000021202000F0D4F80021022000F0D0F820
:1008C00000218D2000F0CCF80021142000F0C8F8A1
:1008D0000021A42000F0C4F80021A62000F0C0F8F8
:1008E0000021AF2000F0BCF80021AF2000F0B8F8E4
:1008F000FFF740FF0021084600F004F808BD0000A3
:10090000000C014070B504460D4605F1B001C8B2B7
:10091000002100F0A5F8102141EA1410002100F098
:100920009FF804F00F0141F00100002100F098F859
:1009300070BD00002DE9F04107460E4690460025A7
:100940000024A8F12000C5B27F2F02DD0027B01CD3
:10095000C6B231463846FFF7D5FF002408E004EB65
:1009600005110F4A505C012100F07AF8601CC4B2F6
:10097000082CF4DB701CC1B23846FFF7C3FF00241B
:1009800009E004EB05110831054A505C012100F033
:1009900067F8601CC4B2082CF3DBBDE8F0810000EE
:1009A000101F00082DE9FF5F074691461D460E9E69
:1009B0004FF0000A002433E0281B401EC1B20A2079
:1009C00000F0FAFEB9FBF0F00A21B0FBF1F201FBF6
:1009D0001208BAF1000F13D1681EA04210DDB8F161
:1009E000000F0BD1B34606EBDB71491001FB04711C
:1009F000C8B220220199FFF79DFF0FE04FF0010AD6
:100A0000B34606EBDB71491001FB0471C8B208F173
:100A10003001CAB20199FFF78DFF00BF601CC4B25C
:100A2000AC42C9DBBDE8FF9F2DE9F04104460F460B
:100A3000154600260EE0AA5D39462046FFF77AFFEC
:100A400004F10800C4B2782C02DD0024B81CC7B23F
:100A5000701CC6B2A85D0028EDD1BDE8F081000091
:100A600070B504460E4626B140211A48FFF70CFD2A
:100A700003E040211748FFF705FD20211548FFF747
:100A800001FD00251BE04FF400711248FFF7FAFC4E
:100A900014F0800F05D04FF480710E48FFF7F4FC7E
:100AA00004E04FF480710B48FFF7ECFC4FF4007149
:100AB0000848FFF7E9FC6006040E681CC5B2082D63
:100AC000E1DB20210348FFF7DFFC40210148FFF76D
:100AD000DBFC70BD000C01407047000029B1064AE4
:100AE000D2690243044BDA6104E0034AD2698243CB
:100AF000014BDA61704700000010024029B1064A3C
:100B000092690243044B9A6104E0034A926982436A
:100B1000014B9A617047000000100240704710B509
:100B200000F002F810BD00000CB50020019000900C
:100B30003248006840F480303049086000BF2F48D8
:100B4000006800F4003000900198401C019000986B
:100B500018B90198B0F5A06FF1D12848006810F4D9
:100B6000003F02D00120009001E00020009000989A
:100B7000012842D12248006840F010002049086056
:100B80000846006820F0030008600846006840F04E
:100B900002000860194840681849486008464068E3
:100BA00048600846406840F48060486008464068F5
:100BB00020F47C1048600846406840F4E810486023
:100BC0000846006840F08070086000BF0B4800686D
:100BD00010F0007FFAD00948406820F00300074970
:100BE00048600846406840F00200486000BF034883
:100BF000406800F00C000828F9D10CBD001002403C
:100C000000200240F8B50024002500261F48056892
:100C10001F480668A81984B2102005232246002127
:100C200000902820FFF7BEFE1A480068B0F5FA7F52
:100C300004DD184800683238164908601548006815
:100C40000A2190FBF1F0471E102002233A46194674
:100C500000902A20FFF7A6FE2E2202213C20FFF75B
:100C600069FE0C4800680A2190FBF1F201FB1207B3
:100C7000102001233A46022100904120FFF792FE06
:100C8000532202215020FFF755FEF8BD58000020E6
:100C90005C00002024000020042808D14FF0E0214F
:100CA000096941F004014FF0E022116107E04FF0C3
:100CB000E021096921F004014FF0E0221161704741
:100CC0007047000010B51348006840F0010011495A
:100CD000086008464068104908400E4948600846C8
:100CE00000680E4908400B4908600846006820F477
:100CF000802008600846406820F4FE0048604FF4F9
:100D00001F008860FFF70BFF4FF000600449086088
:100D100010BD0000001002400000FFF8FFFFF6FECB
:100D200008ED00E010B501210F4800F040F801285F
:100D300018D101210C4800F02BF80C480068401C29
:100D40000A4908600A480068401C094908600846CA
:100D50000068C82806DD0020086006480068401CBE
:100D60000449086010BD0000000800401C0000207D
:100D7000200000202400002021B1028842F08002DF
:100D8000028004E002884FF67F731A4002807047A9
:100D9000CA430282704721B1028842F001020280F8
:100DA00004E002884FF6FE731A400280704730B5A7
:100DB0000246002000230024158A05EA01039589D4
:100DC00005EA010413B10CB1012000E0002030BDA0
:100DD0001AB183890B43838102E083898B4383812A
:100DE0007047000070B5002400220023058C4FF6E8
:100DF000FF6635400584028C8388848B4FF68F759F
:100E00002C404FF6FC752C400D882C434FF6FF55B7
:100E10002A400D894FF6FF7606EA05252A434D88BC
:100E200006EA05252A43154DA84202D0144DA842D2
:100E30001DD14FF2FF752A404D894FF6FF7606EA25
:100E400005252A434FF6FF352A408D8806EA0525F9
:100E50002A434EF6FF752B404DF6FF752B408D89CA
:100E600006EA05152B43CD8906EA05152B43838039
:100E70008483CD888587028470BD0000002C0140EA
:100E8000003401400A460021818B4FF6F773194068
:100E9000114381837047000070B5002200230024B5
:100EA000058C4EF6FF7635400584038C8488828B52
:100EB00048F6FF752A404FF6FF452A400D884FF649
:100EC000FF7606EA05252A434DF6FF752B400D896E
:100ED00006EA05352B434D8806EA05352B430B4DB5
:100EE000A84202D00A4DA84208D14BF6FF752C400B
:100EF0008D894FF6FF7606EA85152C438480828320
:100F0000CD88A0F84050038470BD0000002C014043
:100F1000003401400A460021818B4FF2FF731940D3
:100F20004FF6FF7303EA02231943818370478187D9
:100F30007047A0F840107047002202881D4B98426D
:100F40000ED01D4B98420BD0B0F1804F08D01B4BF8
:100F5000984205D01A4B984202D01A4B984204D1BD
:100F60004FF68F731A404B881A43174B984207D09D
:100F7000164B984204D04FF6FF431A40CB881A43D1
:100F800002808B8883850B8803850A4B98420BD09F
:100F9000094B984208D00E4B984205D00D4B984211
:100FA00002D00D4B984201D10B7A03860123838234
:100FB00070470000002C0140003401400004004054
:100FC00000080040000C00400010004000140040E9
:100FD00000400140004401400048014000BFFEE7DE
:100FE00002E008C8121F08C1002AFAD170477047F2
:100FF000002001E001C1121F002AFBD17047000050
:1010000008B501210820FFF779FD10208DF80300B5
:101010004002ADF8000003208DF802006946044844
:10102000FFF79EF94FF400510148FFF72BFA08BD76
:10103000000C014010B54FF400510248FFF722FAAE
:1010400010BD0000000C014010B54FF400510248E3
:10105000FFF71AFA10BD0000000C014010B56FF048
:101060000400FFF719FE0A4800680A49B0FBF1F0D6
:10107000094908700846007800EB4001C1EBC01038
:101080004FF6FF7101EAC0000449088010BD00005E
:101090000000002000127A00160000201800002036
:1010A0000146114A12884A434FF0E0235A61002258
:1010B0009A611A46126942F001021A6100BF4FF0AC
:1010C000E022106910F0010F02D010F4803FF6D03A
:1010D0004FF0E022126922F001024FF0E0231A6182
:1010E00000229A6170470000180000200146114A52
:1010F00012784A434FF0E0235A6100229A611A465F
:10110000126942F001021A6100BF4FF0E02210693B
:1011100010F0010F02D010F4803FF6D04FF0E02223
:10112000126922F001024FF0E0231A6100229A6155
:1011300070470000160000202DE9F0410024002532
:1011400000260027A04613E0184800F0EEF91748E3
:1011500000880444154840880544144880880644A3
:101160001248C08807440A20FFF79AFF08F10108D7
:10117000B8F1640FE8DB6420B4FBF0F080B20C49F6
:1011800008606420B5FBF0F080B20A490860642072
:10119000B6FBF0F080B2084908606420B7FBF0F0BD
:1011A00080B206490860BDE8F081000050000020D0
:1011B0006000002064000020680000206C00002017
:1011C00010B50520FFF792FF10BD000008B5012102
:1011D0000420FFF793FC14208DF803003020ADF8B5
:1011E000000003208DF8020069460648FFF7B8F8B2
:1011F00010210448FFF748F920210248FFF744F97D
:1012000008BD00000008014070B5002420211248EC
:10121000FFF73AF9FFF7D4FF002519E010210E4837
:10122000FFF730F9FFF7CCFF6006040E10210A48E3
:10123000FFF72AF9FFF7C4FF20210748FFF719F944
:10124000012801D1601CC4B2FFF7BAFF681CC5B207
:10125000082DE3DB204670BD0008014010B52021B9
:101260000B48FFF711F9FFF7ABFF10210848FFF714
:101270000BF9FFF7A5FF20210548FFF703F9FFF75A
:101280009FFF10210248FFF7FFF8FFF799FF10BDFD
:101290000008014010B510210948FFF7F3F820219C
:1012A0000748FFF7EFF8FFF78BFF10210448FFF71F
:1012B000EBF820210248FFF7E7F8FFF781FF10BDA8
:1012C0000008014010B5002410210D48FFF7DCF89C
:1012D000FFF776FF20210A48FFF7D6F8FFF770FFE7
:1012E00001E0601CC4B220210548FFF7C2F80128C4
:1012F00001D1FE2CF5DB10210148FFF7C3F810BD2A
:10130000000801402DE9F04104460026264600254C
:101310001CE0F71110211548FFF7B4F8FFF750FF54
:1013200027B120211148FFF7AFF803E020210F4833
:10133000FFF7A8F8FFF744FF10210C48FFF7A4F8C7
:10134000FFF73EFF7006060E681CC5B2082DE0DBF5
:1013500010210648FFF796F8FFF732FF20210348D7
:10136000FFF792F8FFF72CFFBDE8F081000801407D
:1013700008B501210420FFF7C1FB48208DF80300C8
:101380000320ADF800008DF8020069460F48FEF713
:10139000E7FF03210D48FFF777F801210820FFF749
:1013A000ADFB48208DF803004FF48050ADF80000ED
:1013B00003208DF8020069460548FEF7D1FF4FF47F
:1013C00080510348FFF760F808BD000000080140A5
:1013D000000C014010B540F2D64208212A2000F04E
:1013E00087F840F2D64209212A2000F081F840F225
:1013F000D6420A212A2000F07BF840F2D6420B2187
:101400002A2000F075F842F6FF120C212A2000F085
:101410006FF842F6FF120D212A2000F069F842F61B
:10142000FF120E212A2000F063F842F6FF120F216E
:101430002A2000F05DF80A2210212A2000F058F836
:101440000A2211212A2000F053F80A2212212A2010
:1014500000F04EF80A2213212A2000F049F841F248
:10146000050214212A2000F043F841F2050215215B
:101470002A2000F03DF841F2050216212A2000F052
:1014800037F841F2050217212A2000F031F84CF21A
:101490000C221B212A2000F02BF84FF4C0421E2101
:1014A0002A2000F025F84FF4E0421F212A2000F006
:1014B0001FF84FF4E04220212A2000F019F84FF4E1
:1014C000C04221212A2000F013F84FF4C0621C21F1
:1014D0002A2000F00DF84FF400721D212A2000F0A0
:1014E00007F841F201621A212A2000F001F810BD2C
:1014F0002DE9F04180460D461446E6B22712FFF76B
:10150000ADFE5420FFF7FEFEFFF7DCFE2846FFF796
:10151000F9FEFFF7D7FE3846FFF7F4FEFFF7D2FEDD
:101520003046FFF7EFFEBDE8F08110B5044600211C
:101530002A2000F0C1F9208002212A2000F0BCF905
:10154000608004212A2000F0B7F9A08006212A201B
:1015500000F0B2F9E08010BD10B504210148FEF79B
:1015600093FF10BD000C014010B504210148FEF7A7
:1015700089FF10BD000C014010B508210148FEF79D
:1015800083FF10BD000C014010B508210148FEF793
:1015900079FF10BD000C014010B510210148FEF785
:1015A00073FF10BD000C014010B510210148FEF77B
:1015B00069FF10BD000C014010B54FF48061024876
:1015C000FEF762FF10BD0000000C014010B54FF4A3
:1015D00080610248FEF756FF10BD0000000C01407C
:1015E00086B0FFF73BFDFEF753FFFEF7DFFFFFF787
:1015F00007FDFFF7BDFE00F0F3F8FEF7A8FD4FF47E
:10160000FA7000F08FFAFFF7E1FDFFF7E3FEFEF757
:1016100063FE00F0DDF8FEF751FF6420FFF740FDA8
:10162000FFF78AFD42480068001F424908604248AF
:101630000068001F4149086041480068001F414997
:10164000086041480068001F404908603848006849
:101650003C303F490860384800683C303D490860EC
:10166000374800683C303C490860374800683C30E7
:101670003A4908603A4800883A4908803A48008860
:101680003A4908803AA200210846FFF7CDF9FFF752
:1016900071F83AA200210846FFF7C6F939A20221E3
:1016A0000020FFF7C1F9002404E04FF47A70FFF73F
:1016B000F7FC641C042CF8DB00203449086035E09A
:1016C000FFF7A0FA00F080F931490870314800684E
:1016D00005281DDD00202F4908602F482F49304A7A
:1016E000304BCDE90132CDE903102F48006800905E
:1016F0002E4803681C48028819480188244800784D
:10170000FEF772FF244B254A2549264800F03AFA95
:1017100005E000231A461946184600F0E7F9244868
:1017200000684000234909688842F2D8C8E70000F1
:101730006000002070000020640000207400002081
:1017400068000020780000206C0000207C00002051
:101750008000002084000020880000208C000020F1
:101760002C000020480000202E0000204C0000200B
:101770007265616C6C792120676F21006C656E3A2F
:101780000000000074696D65723A000024000020BA
:10179000140000201C00002036000020340000202F
:1017A00032000020300000203C00002038000020E3
:1017B000580000202800002010B50246012000E05B
:1017C00050430B00A1F10104E1B2F9D110BD0000BA
:1017D00010B501210148FFF7DEFA10BD00080040F6
:1017E00010B500F0DFF9032140F2E73000F0F0F926
:1017F00000F02AFA032140F2E73000F039FA002322
:101800001A461946184600F071F910BD10B50121AD
:101810000B48FEF72EFE80B90A20FFF741FC01219C
:101820000748FEF726FE40B900BF01210448FEF735
:1018300020FE0028F9D0012010BD0020FCE70000A8
:101840000008014010B502210B48FEF712FE80B9D6
:101850000A20FFF725FC02210748FEF70AFE40B9DF
:1018600000BF02210448FEF704FE0028F9D0012041
:1018700010BD0020FCE700000008014010B54FF447
:1018800080510C48FEF7F5FD90B90A20FFF708FCDF
:101890004FF480510748FEF7ECFD48B900BF4FF404
:1018A00080510448FEF7E5FD0028F8D0012010BD66
:1018B0000020FCE7000C01402DE9F04180460D4678
:1018C000002600270024FFF7C9FC5420FFF71AFD6B
:1018D000FFF7F8FC2846FFF715FDFFF7F3FCFFF7CD
:1018E000BDFC5520FFF70EFDFFF7ECFCFFF78CFC6D
:1018F000064600F033F8FFF787FC074600F048F88B
:10190000FFF7C8FC34434FF6FF7000EA04243C4361
:101910002046BDE8F081000008480088084908809A
:101920000848008808490880084800880849088055
:1019300008480088084908807047000030000020EF
:1019400048000020320000204A000020340000201F
:101950004C000020360000204E00002010B5102161
:101960000A48FEF78FFDFFF72BFC20210748FEF702
:1019700089FDFFF725FC10210448FEF785FDFFF7E0
:101980001FFC10210148FEF77DFD10BD000801403D
:1019900010B510210B48FEF775FDFFF711FC202153
:1019A0000848FEF771FDFFF70BFC10210548FEF714
:1019B0006BFDFFF705FC10210248FEF763FDFFF702
:1019C000FFFB10BD0008014010B500243A48FFF7A6
:1019D000ACFD3948008839490968884204DA44F086
:1019E0000104FFF7C1FD01E0FFF7B6FD3248408872
:1019F00033490968884204DA44F00204FFF7C4FD61
:101A000001E0FFF7B9FD2C4880882E49096888421B
:101A100004DA44F00404FFF7C7FD01E0FFF7BCFD62
:101A20002548C08828490968884204DA44F0080437
:101A3000FFF7CCFD01E0FFF7BFFD1F4800882349F9
:101A40000968884231DA1C4840882149096888427F
:101A50002BDA194880881F490968884225DA164818
:101A6000C0881D49096888421FDA134800881B494D
:101A70000968401A10F13C0F17DB0F4840881849DD
:101A80000968401A10F13C0F0FDB0B48808815499C
:101A90000968401A10F13C0F07DB0748C08812495B
:101AA0000968401A10F13C0F02DAFFF7CDFA01E0A5
:101AB000FFF7C0FA204610BD500000207000002043
:101AC00074000020780000207C00002080000020AE
:101AD00084000020880000208C000020600000208E
:101AE00064000020680000206C0000202DE9F04117
:101AF00004460F4615461E4621464FF08040FFF72C
:101B000016FA39464FF08040FFF713FA2946044889
:101B1000FFF70DFA31460248FFF70BFABDE8F081F6
:101B2000000400401FB5044601210420FEF7D6FF43
:101B30000020ADF80A001020ADF80600ADF808400E
:101B40004720ADF8040001A90D48FFF7F5F901227F
:101B500011460B48FFF73CF91E208DF800000120CC
:101B60008DF803004FF4A060FEF7FAFD01208DF818
:101B7000010000208DF802006846FEF7B7FD1FBD8A
:101B8000000800402DE9F04104460D4616461F4668
:101B9000FFF7C2FE3B88328829882088FFF7A6FF1E
:101BA000BDE8F08108B501210420FEF7A7FF182049
:101BB0008DF8030003208DF802000C20ADF8000022
:101BC00069460248FEF7CCFB08BD00000008014052
:101BD00030B587B005460C4601210846FEF77EFF6A
:101BE000A8B2ADF81400A0B2ADF810000020ADF816
:101BF0001600ADF8120004A94FF08040FFF79CF9E1
:101C00007020ADF800000120ADF802000220ADF810
:101C1000080069464007FFF7E5F869464FF0804045
:101C2000FFF73AF90821C806FFF72CF90821C80682
:101C3000FFF770F901218807FFF79EF80121880757
:101C4000FFF7A9F807B030BD08B501210820FEF75D
:101C500055FF18208DF8030003208DF80200ADF821
:101C6000000069460148FEF77BFB08BD000C0140FF
:101C700030B587B005460C4601210220FEF72EFF45
:101C80000020ADF81600ADF81200A8B2ADF81400AF
:101C9000A0B2ADF8100004A91248FFF74DF970206A
:101CA000ADF800000220ADF808000120ADF80200F8
:101CB00069460C48FFF796F869460A48FFF7ECF8C2
:101CC00008210848FFF7DEF808210648FFF722F947
:101CD00001210448FFF750F801210248FFF75BF8A3
:101CE00007B030BD0004004000000000000000000C
:101CF000002F000000000700070000147F147F146D
:101D000000242A7F2A1200626408132300364955F2
:101D1000225000000503000000001C2241000000CA
:101D200041221C000014083E08140008083E080860
:101D3000000000A0600000080808080800006060BB
:101D40000000002010080402003E5149453E0000FA
:101D5000427F4000004261514946002141454B31DC
:101D6000001814127F10002745454539003C4A49A8
:101D7000493000017109050300364949493600061A
:101D80004949291E00003636000000005636000082
:101D900000081422410000141414141400004122FD
:101DA000140800020151090600324959513E007CD5
:101DB0001211127C007F49494936003E41414122BF
:101DC000007F4141221C007F49494941007F0909A8
:101DD0000901003E4149497A007F0808087F000058
:101DE000417F4100002040413F01007F0814224113
:101DF000007F40404040007F020C027F007F0408CB
:101E0000107F003E4141413E007F09090906003E26
:101E10004151215E007F091929460046494949314F
:101E20000001017F0101003F4040403F001F204072
:101E3000201F003F4038403F006314081463000730
:101E40000870080700615149454300007F41410087
:101E500000552A552A55000041417F000004020127
:101E60000204004040404040000001020400002005
:101E700054545478007F4844443800384444442043
:101E800000384444487F00385454541800087E09F0
:101E900001020018A4A4A47C007F080404780000B8
:101EA000447D4000004080847D00007F1028440075
:101EB0000000417F4000007C04180478007C080486
:101EC000047800384444443800FC242424180018C2
:101ED000242418FC007C08040408004854545420AE
:101EE00000043F444020003C4040207C001C204037
:101EF000201C003C4030403C004428102844001C7A
:101F0000A0A0A07C004464544C4414141414141471
:101F100000000000000000000000000000000000C1
:101F2000000000F800000000000000333000000056
:101F300000100C06100C060000000000000000005D
:101F400040C07840C0784000043F04043F040400CF
:101F5000007088FC08300000001820FF211E0000DF
:101F6000F008F000E018000000211C031E211E00F4
:101F700000F00888700000001E212324192721107A
:101F800010160E000000000000000000000000001D
:101F9000000000E0180402000000000718204000C4
:101FA00000020418E00000000040201807000000B4
:101FB000404080F0804040000202010F0102020018
:101FC000000000F0000000000101011F01010100FC
:101FD000000000000000000080B070000000000061
:101FE00000000000000000000001010101010101EA
:101FF0000000000000000000003030000000000081
:102000000000000080601804006018060100000055
:1020100000E010080810E000000F102020100F0052
:10202000001010F8000000000020203F20200000D9
:102030000070080808887000003028242221300031
:1020400000300888884830000018202020110E0039
:102050000000C02010F8000000070424243F2400E2
:1020600000F80888880808000019212020110E00B7
:1020700000E0108888180000000F112020110E00C9
:1020800000380808C83808000000003F00000000C1
:102090000070880808887000001C222121221C0082
:1020A00000E010080810E0000000312222110F00AB
:1020B000000000C0C0000000000000303000000040
:1020C00000000080000000000000806000000000B0
:1020D00000008040201008000001020408102000C9
:1020E0004040404040404000040404040404040014
:1020F00000081020408000000020100804020100A9
:10210000007048080808F0000000003036010000A8
:10211000C030C828E810E0000718272423140B005B
:102120000000C038E0000000203C230202273820D5
:1021300008F8888888700000203F202020110E00B9
:10214000C0300808080838000718202020100800B0
:1021500008F808080810E000203F202020100F0099
:1021600008F88888E8081000203F20202320180065
:1021700008F88888E8081000203F200003000000CD
:10218000C03008080838000007182020221E02006E
:1021900008F808000008F808203F210101213F202D
:1021A000000808F8080800000020203F2020000058
:1021B00000000808F8080800C08080807F00000048
:1021C00008F888C028180800203F20012638200081
:1021D00008F8080000000000203F202020203000E8
:1021E00008F8F800F8F80800203F003F003F200002
:1021F00008F830C00008F808203F200007183F000A
:10220000E01008080810E0000F10202020100F0038
:1022100008F808080808F000203F2101010100002B
:10222000E01008080810E0000F18242438504F0070
:1022300008F8888888887000203F2000030C302030
:1022400000708808080838000038202121221C006E
:10225000180808F8080818000000203F20000000B7
:1022600008F808000008F808001F202020201F00A0
:102270000878880000C83808000007380E01000000
:10228000F80800F80008F800033C0700073C0300CA
:10229000081868808068180820302C03032C302030
:1022A0000838C800C83808000000203F200000009F
:1022B00010080808C83808002038262120201800F7
:1022C000000000FE020202000000007F40404000CB
:1022D000000C30C000000000000000010638C00003
:1022E00000020202FE000000004040407F000000AB
:1022F00000000402020204000000000000000000D0
:1023000000000000000000008080808080808080CD
:1023100000020204000000000000000000000000B5
:1023200000008080808000000019242222223F20AB
:1023300008F8008080000000003F112020110E00EE
:102340000000008080800000000E1120202011007D
:10235000000000808088F800000E112020103F202F
:102360000000808080800000001F222222221300B3
:10237000008080F0888888180020203F20200000FE
:102380000000808080808000006B949494936000B3
:1023900008F8008080800000203F210000203F20BE
:1023A00000809898000000000020203F20200000BE
:1023B000000000809898000000C08080807F0000AE
:1023C00008F8000080808000203F24022D3020008B
:1023D000000808F8000000000020203F2020000036
:1023E0008080808080808000203F20003F20003F50
:1023F0008080008080800000203F210000203F205E
:102400000000808080800000001F202020201F000E
:10241000808000808000000080FFA12020110E003D
:102420000000008080808000000E112020A0FF802E
:10243000808080008080800020203F2120000100DB
:102440000000808080808000003324242424190030
:10245000008080E0808000000000001F202000003D
:102460008080000000808000001F202020103F207E
:10247000808080000080808000010E30080601000E
:1024800080800080008080800F300C030C300F00B3
:1024900000808000808080000020312E0E312000DE
:1024A000808080000080808080818E70180601000E
:1024B00000808080808080000021302C222130002C
:1024C00000000000807C020200000000003F40404D
:1024D00000000000FF00000000000000FF000000FE
:1024E0000002027C800000000040403F000000002D
:1024F00000060101020204040000000000000000C8
:102500002025000800000020A0000000E00F0008C7
:10251000C0250008A000002000040000F00F000803
:1025200000A24A04000000000000000001020304B1
:10253000060708090000000000000000000000007D
:102540000000000000000000C8190000E703E703D6
:10255000000000000000000000000000000000007B
:10256000000000000000000000000000000000006B
:10257000000000000000000000000000000000005B
:10258000000000000000000000000000000000004B
:10259000000000000000000000000000000000003B
:1025A000000000000000000000000000000000002B
:1025B000000000000000000000000000000000001B
:04000005080000ED02
:00000001FF
